{
  "contractName": "Owned",
  "abi": [
    {
      "anonymous": false,
      "inputs": [
        {
          "indexed": false,
          "name": "previousOwner",
          "type": "address"
        },
        {
          "indexed": false,
          "name": "newOwner",
          "type": "address"
        }
      ],
      "name": "TransferredOwnership",
      "type": "event"
    },
    {
      "constant": false,
      "inputs": [
        {
          "name": "_newOwner",
          "type": "address"
        }
      ],
      "name": "transferOwnership",
      "outputs": [],
      "payable": false,
      "stateMutability": "nonpayable",
      "type": "function"
    }
  ],
  "bytecode": "0x608060405234801561001057600080fd5b506102af806100206000396000f3fe608060405260043610610041576000357c0100000000000000000000000000000000000000000000000000000000900463ffffffff168063f2fde38b14610046575b600080fd5b34801561005257600080fd5b506100956004803603602081101561006957600080fd5b81019080803573ffffffffffffffffffffffffffffffffffffffff169060200190929190505050610097565b005b61009f6101ff565b73ffffffffffffffffffffffffffffffffffffffff163373ffffffffffffffffffffffffffffffffffffffff161415156100d857600080fd5b60006100e26101ff565b9050600073ffffffffffffffffffffffffffffffffffffffff168273ffffffffffffffffffffffffffffffffffffffff161415151561012057600080fd5b8073ffffffffffffffffffffffffffffffffffffffff168273ffffffffffffffffffffffffffffffffffffffff161415151561015b57600080fd5b61016482610242565b7f850b3df64837d7d518b45f5aa64d104652c3b80eb5b34a8e3d9eb666cb7cdea58183604051808373ffffffffffffffffffffffffffffffffffffffff1673ffffffffffffffffffffffffffffffffffffffff1681526020018273ffffffffffffffffffffffffffffffffffffffff1673ffffffffffffffffffffffffffffffffffffffff1681526020019250505060405180910390a15050565b60008060405180807f6f72672e6574686572706c617465746f6b656e732e6f776e65642e6f776e6572815250602001905060405180910390209050805491505090565b600060405180807f6f72672e6574686572706c617465746f6b656e732e6f776e65642e6f776e6572815250602001905060405180910390209050818155505056fea165627a7a72305820f786eeed3cbcf27617b0c09302e944cab09671942b8a0ae060c013c5342511da0029",
  "source": "pragma solidity ^0.5.0;\n\ncontract Owned {\n  bytes32 private constant ownerPosition = keccak256(\"org.etherplatetokens.owned.owner\");\n\n  event TransferredOwnership(address previousOwner, address newOwner);\n\n  modifier onlyOwner() {\n    require(msg.sender == getOwner());\n    _;\n  }\n\n  function transferOwnership(address _newOwner) onlyOwner external {\n    address owner = getOwner();\n    require(_newOwner != address(0));\n    require(_newOwner != owner);\n    setOwner(_newOwner);\n    emit TransferredOwnership(owner, _newOwner);\n  }\n\n  function getOwner() internal view returns (address owner) {\n    bytes32 position = ownerPosition;\n    assembly {\n      owner := sload(position)\n    }\n  }\n\n  function setOwner(address _owner) internal {\n    bytes32 position = ownerPosition;\n    assembly {\n      sstore(position, _owner)\n    }\n  }\n}\n",
  "sourcePath": "/Users/shannonclarke/Documents/dev/tutorials/erc721-test01/contracts/Owned.sol",
  "compiler": {
    "name": "solc",
    "version": "0.5.0+commit.1d4f565a.Emscripten.clang"
  },
  "schemaVersion": "3.0.8",
  "updatedAt": "2019-04-26T16:54:07.291Z",
  "devdoc": {
    "methods": {}
  },
  "userdoc": {
    "methods": {}
  }
}